:1000000000100020C50100002902000015020000B8
:100010002B0200002D0200002F0200000000000053
:10002000000000000000000000000000310200009D
:10003000330200000000000035020000370200001B
:100040003D02000000000000000000000000000071
:1000500010B5064C2378002B07D1054B002B02D09E
:10006000044800E000BF0123237010BD640000209D
:100070000000000034130000044B10B5002B03D027
:100080000349044800E000BF10BDC0460000000066
:10009000680000203413000003B471464908400092
:1000A0004900095E49008E4403BC704700224308A2
:1000B0008B4274D303098B425FD3030A8B4244D330
:1000C000030B8B4228D3030C8B420DD3FF22090272
:1000D00012BA030C8B4202D31212090265D0030B31
:1000E0008B4219D300E0090AC30B8B4201D3CB0327
:1000F000C01A5241830B8B4201D38B03C01A524169
:10010000430B8B4201D34B03C01A5241030B8B426A
:1001100001D30B03C01A5241C30A8B4201D3CB0255
:10012000C01A5241830A8B4201D38B02C01A52413A
:10013000430A8B4201D34B02C01A5241030A8B423D
:1001400001D30B02C01A5241CDD2C3098B4201D355
:10015000CB01C01A524183098B4201D38B01C01AD3
:10016000524143098B4201D34B01C01A524103094A
:100170008B4201D30B01C01A5241C3088B4201D3F9
:10018000CB00C01A524183088B4201D38B00C01AA6
:10019000524143088B4201D34B00C01A5241411ACD
:1001A00000D20146524110467047FFE701B50020DA
:1001B00000F006F802BDC0460029F7D076E7704788
:1001C0007047C0460D4885460D480E490E4A00232B
:1001D00002E0D458C4500433C4188C42F9D30B4AFB
:1001E0000B4C002301E013600432A242FBD300F069
:1001F000B5F800F0C7F800F0B7F8FEE700100020EF
:100200000000002064000020F013000064000020C3
:100210009400002004207146084202D0EFF30980C8
:1002200001E0EFF308807047F4E7F3E7F2E7F1E766
:10023000F0E7EFE7EEE7EDE7EEE7000000B5044892
:100240000449016000F08CF803480449016000BDD6
:10025000F800A04400000000FC00A04401000000E1
:1002600086B00390029101920023059302E0059B62
:1002700001330593059A019B9A42F8DB019B180014
:1002800006B0704700B587B0039002910192002339
:10029000059309E0029B5A1C02921B78180000F09B
:1002A0003DF8059B01330593059A019B9A42F1DBCA
:1002B000019B180007B000BD82B0019001235B4292
:1002C000180002B0704782B001900091009B80221C
:1002D00092015A600023180002B0704782B001906A
:1002E0000123180002B0704784B00390029101927C
:1002F0000023180004B0704782B00190019B1B6876
:10030000180002B0704784B001900091019B0393E4
:10031000039B009A1A60C04604B0704700B583B0D2
:1003200002006B4607331A70C0460A4B1800FFF7ED
:10033000E3FF030008221340082BF6D06B46073377
:100340001B78054A19001000FFF7DDFF0123180094
:1003500003B000BD0800604004006040C046704724
:10036000002318007047000000B583B000230193FC
:10037000034B180000F032F803000093FEE7C0467C
:100380004C13000070B500260C4D0D4C641BA410DE
:10039000A64209D1002600F0CDFF0A4D0A4C641B8D
:1003A000A410A64205D170BDB300EB5898470136A2
:1003B000EEE7B300EB5898470136F2E7E813000088
:1003C000E8130000E8130000EC130000030082189B
:1003D000934200D1704719700133F9E70FB40B4B0A
:1003E00013B51C68002C05D0A369002B02D1200096
:1003F00000F070F805AB2000049AA168019300F0AA
:1004000093F916BC08BC04B01847C0460000002091
:10041000002310B50400036043608360818143665C
:100420001900C28103614361836108225C30FFF7D8
:10043000CDFF054B24626362044BA362044BE3626D
:10044000044B236310BDC046C50C0000ED0C00003A
:10045000250D0000510D000010B5024900F0BAF85A
:1004600010BDC0465D10000070B568254A1E55439A
:100470000E002900743100F0D1F8041E08D00021CC
:100480002A00016046600C30A0606832FFF79EFFD2
:10049000200070BD10B5024800F0BDF810BDC04688
:1004A0008100002010B5024800F0B6F810BDC0462B
:1004B0008100002010B5024800F0ADF810BDC04624
:1004C0008200002010B5024800F0A6F810BDC0461A
:1004D0008200002013B50400FFF7ECFFA369002B96
:1004E00002D0FFF7EFFF13BDA364E3642365134B52
:1004F000134A1B68A2620193A34201D10123A361A5
:10050000200000F01FF86060200000F01BF8A060E1
:10051000200000F017F800220421E0606068FFF777
:1005200077FF01220921A068FFF772FF0222122142
:10053000E068FFF76DFF0123A361D2E750130000CD
:1005400059040000F8B50700FFF7A4FF1F4B1E6811
:10055000B369002B02D13000FFF7BCFF4836B46806
:100560007368013B04D53368002B22D03668F6E768
:100570000C22A55E002D1AD12000154B5830E360E7
:10058000656600F047F8FFF78DFF2000082229007C
:100590002560A560656025616561A5615C30FFF738
:1005A00015FF6563A563A564E5642000F8BD6834A4
:1005B000D7E704213800FFF757FF041E3060D5D17C
:1005C000FFF770FF0C233B60EFE7C04650130000BD
:1005D0000100FFFFF7B50400060000270191483431
:1005E0006368A5680093009B013B009304D52468D1
:1005F000002CF5D13800FEBDAB89012B08D90E22A5
:10060000AB5E013304D029003000019B98470743BB
:100610006835E8E77047704770470000F8B5032376
:10062000CD1C9D43083506000C2D1FD20C25A94278
:100630001ED8300000F0DEFD25490A681400002CA9
:100640001AD1244F3B68002B04D12100300000F068
:1006500027FB38602900300000F022FB431C2BD11F
:100660000C233000336000F0CDFD03E0002DDEDA16
:100670000C2333600020F8BD23685B1B19D40B2BBF
:1006800003D92360E418256003E06368A2420ED119
:100690000B60300000F0B6FD200007220B30231D58
:1006A0009043C21A9842E6D01B1AA350E3E7536066
:1006B000EFE722006468C2E70323C41C9C43A04206
:1006C000E1D0211A300000F0EBFA431CDBD1C7E780
:1006D0008400002088000020936810B5013B9360DF
:1006E000002B04DA9469A34207DB0A2905D01368BA
:1006F000581C10601970080010BD00F02FFB01009D
:10070000F9E7F8B506000F001400D518AC4201D186
:10071000002007E021783A003000FFF7DDFF0134C8
:10072000431CF3D1F8BD0000F0B5A1B006000C00E9
:100730001F000392002804D08369002B01D1FFF72A
:10074000C9FE8E4B9C421CD17468636EDB0705D4D6
:10075000A3899B0502D4A06DFFF75DFFA3891B074A
:1007600002D52369002B1DD12100300000F060FB71
:10077000002817D0636EDB070DD50120404221B061
:10078000F0BD7F4B9C4201D1B468DEE77D4B9C42BB
:10079000DBD1F468D9E7A3899B05EED4A06DFFF700
:1007A0003BFFEAE7002308AD6B6120336B76103323
:1007B000AB760797039F3B78002B01D0252B4ED1BA
:1007C000039BFB1A0593039B9F420DD0059B2100C1
:1007D0003000039AFFF795FF431C00D1B5E06A692A
:1007E000059B944663446B613B78002B00D1ACE0E1
:1007F00001227B1C0393002352426A6004A95432F5
:1008000052182B60EB60AB601370AB65039B052245
:1008100019785D4800F0E2FC039B5F1C002820D1A2
:100820002A68D30604D5532304A95B182021197024
:10083000130704D5532304A95B182B211970039BBC
:100840001B782A2B16D00021EB68039F3A78781C7E
:10085000303A8446092A4FD9002911D117E00137CF
:10086000A9E7494B2A68C01A0123834013432B6030
:100870000397CBE7079B191D1B680791002B01DB32
:100880000B9304E05B42EB60022313432B603B7845
:100890002E2B0AD17B782A2B37D1079B02371A1DC2
:1008A0001B680792002B2DDB099303223978374808
:1008B00000F094FC002807D0344B2A68C01A40236B
:1008C0008340134301372B6039787B1C0622304864
:1008D0000393297600F082FC002845D02D4B002B95
:1008E00027D10722079B07339343083307936B698C
:1008F000049A9B186B615DE70A214B4367469B187E
:100900000939A3E701235B42CEE700231A00013730
:100910006B603978781C30398446092903D9002B5B
:10092000C3D00992C1E70A235A4367465218093BCC
:10093000EFE707AB0093220029003000164B00E0E0
:1009400000BF0490049B0133D1D1636EDB0705D453
:10095000A3899B0502D4A06DFFF75EFEA3895B0609
:1009600000D50AE70D980AE707AB0093220029009B
:100970003000094B00F082F8E3E7C0467413000032
:100980009413000054130000B4130000BA130000C5
:10099000BE1300000000000003070000F7B51500BB
:1009A00001938A680B690C000090934200DA1300EF
:1009B00022002B6043321278002A01D001332B60D1
:1009C00023689B0602D52B6802332B60226806231E
:1009D00017001F401A4227D0230043331B785A1EAA
:1009E00093412268920630D4220001990098089E13
:1009F0004332B047431C25D0062320682A68E168AB
:100A000000250340042B03D18D1AEB43DB171D4057
:100A1000A3682269934201DD9B1AED180027BD42AD
:100A200020D1002010E00137E3682A689B1ABB42FE
:100A3000D2DD2200012301990098089E1932B047A7
:100A4000431CF0D101204042FEBD3020E11843316B
:100A5000087021005A1C45310978A218433202332C
:100A60001170C1E72200012301990098089E1A32F3
:100A7000B047431CE6D00137D1E70000F0B58BB09A
:100A800006920A0043320793059004920A7E0C00F6
:100A9000109B782A07D8622A09D8002A00D1C1E021
:100AA000582A00D18CE026004236327022E0100035
:100AB00063381528F7D8FFF7EFFA16001F00F6FF86
:100AC000F6FFF6FFF6FF1F00F6FFF6FFF6FFF6FF54
:100AD000A80036009A00F6FFF6FFB900F6FF3600D0
:100AE000F6FFF6FF9E0026001A684236111D1960B7
:100AF000136833700123A7E0086819680A1D05060A
:100B00000BD50D681A60002D03DA2D23049A6D426F
:100B10001370614B0A2703931BE00D681A604106AE
:100B2000F1D52DB2EFE70D681968081D18602E0683
:100B300001D50D6803E06D06FBD50D68ADB2564BCF
:100B4000082703936F2A00D0023723000022433383
:100B50001A706368A360002B03DB042221689143B1
:100B60002160002D02D1049E002B0CD0049E280091
:100B70003900FFF721FB039B013E5B5C33702B00C8
:100B800005009F42F3D9082F09D12368DB0706D55A
:100B900063682269934202DC3023013E3370049B78
:100BA0009B1B2361079B210000930598069B09AAC4
:100BB000FFF7F4FE431C4CD1012040420BB0F0BDC6
:100BC00045310A70344A03921A68216820CA1A60B3
:100BD000080616D5CB0702D520231943216010271C
:100BE000002DB2D1202322689A432260ADE7202253
:100BF00009680A4322602200782145321170274A91
:100C0000E1E74806E6D5ADB2E4E71A680D68101DC5
:100C10004969186013682E0601D5196002E06D0657
:100C2000FBD519800023049E2361BBE71A68111DC0
:100C30001960166800213000626800F0CFFA0028C1
:100C400001D0801B6060636823610023049A1370E5
:100C5000A8E72369320006990598079DA847431C19
:100C6000AAD023689B0715D4099BE0689842A5DAAF
:100C70001800A3E72200012306990598079E193260
:100C8000B047431C98D00135E368099A9B1AAB42E0
:100C9000F0DCE9E70025F7E7C5130000D6130000F4
:100CA000002370B5064D040008002B6000F034FBF3
:100CB000431C03D12B68002B00D0236070BDC046BD
:100CC0008C00002070B50C000E25495F00F0ECFA96
:100CD000002803DB636D1B18636570BDA389024A9E
:100CE0001340A381F9E7C046FFEFFFFFF8B51F00EF
:100CF0008B8905000C001600DB0505D50E23C95EA7
:100D00000022022300F0EAF9A389054A28001340D3
:100D1000A38132000E23E15E3B0000F075F8F8BDC0
:100D2000FFEFFFFF70B50C000E25495F00F0D6F90C
:100D3000A389421C03D1054A1340A38170BD8022C0
:100D400052011343A3816065F8E7C046FFEFFFFF40
:100D500010B50E23C95E00F0E3F810BDF8B505002C
:100D60000E001400002804D08369002B01D1FFF786
:100D7000B1FB224B9C422ED16C68A369A360A3896E
:100D80001B0732D52369002B2FD023682269F7B2C5
:100D9000981A6369F6B2834205DC2100280000F04E
:100DA0005DF9002827D1A3680130013BA3602368C7
:100DB0005A1C22601F706369834204D0A389DB0739
:100DC00007D50A2E05D12100280000F047F9002898
:100DD00011D13000F8BD0A4B9C4201D1AC68CCE780
:100DE000084B9C42C9D1EC68C7E72100280000F0FD
:100DF0001FF80028C9D001267642EAE774130000E4
:100E0000941300005413000070B504000800110092
:100E10001A000023054D2B60FFF734FA431C03D161
:100E20002B68002B00D0236070BDC0468C000020D2
:100E3000374B70B51D6806000C00002D05D0AB695E
:100E4000002B02D12800FFF745FB324B9C420FD10B
:100E50006C680C23E25E93B211072DD4D90611D42D
:100E600009230120336037331343A381404270BD0F
:100E7000294B9C4201D1AC68EBE7284B9C42E8D15E
:100E8000EC68E6E75B0713D5616B002908D0230007
:100E90004433994202D0300000F0BCF90023636370
:100EA0002422A3899343A3810023636023692360E1
:100EB0000823A2891343A3812369002B0BD1A0210E
:100EC0008022A389890092000B40934203D0210025
:100ED000300000F03FF90C22A35E01201A0099B205
:100EE000024003420FD00022A26062695242A26116
:100EF000002022698242BAD10A06B8D540221343A3
:100F0000A3810138B3E7880700D46269A260EFE7E4
:100F1000000000207413000094130000541300001C
:100F2000002370B5064D040008002B60FFF7C4F9DC
:100F3000431C03D12B68002B00D0236070BDC0463A
:100F40008C000020F7B58B8905000C001A075FD4D0
:100F50004A68002A04DC0A6C002A01DC0020FEBD7D
:100F6000E76A002FFAD0002280212E682A601A003A
:100F700049010A400B4234D0606DA3895B0706D556
:100F80006368C01A636B002B01D0236CC01A020087
:100F9000216A00232800E76AB847A189431C06D1CB
:100FA0002B681D2B31D82C4ADA40D3072DD50023CE
:100FB000636023692360CB0405D5431C02D12B68F1
:100FC000002B00D16065616B2E600029C6D0230024
:100FD0004433994202D0280000F01CF900206063DD
:100FE000BDE701232800216AB847431CC5D12B68FF
:100FF000002BC2D01D2B01D0162B01D12E60ADE7E6
:101000004023A2891343A381A9E740230B43FAE7B6
:101010000F69002FA2D00A680F60D21B0192002234
:101020009B0700D14A69A260019B002B00DC95E779
:101030003A002800019B216AA66AB047002806DC16
:1010400040230120A28940421343A38187E7019BEB
:101050003F181B1A0193E7E7010040200B6970B5A8
:1010600005000C00002B02D10025280070BD0028CF
:1010700004D08369002B01D1FFF72CFA144B9C425A
:101080001BD16C680C22A35E002BEDD0626ED207E0
:1010900004D49B0502D4A06DFFF7BDFA28002100FF
:1010A000FFF750FF636E0500DB07DED4A3899B05C5
:1010B000DBD4A06DFFF7B0FAD7E7064B9C4201D115
:1010C000AC68DFE7044B9C42DCD1EC68DAE7C04651
:1010D00074130000941300005413000070B5040052
:1010E000080011001A000023054D2B60FFF7FCF8E3
:1010F000431C03D12B68002B00D0236070BDC04679
:101100008C00002070B50E001D000E23C95E140077
:1011100096B0002908DA0C22B35E00222A601B0672
:1011200011D48023DB000FE06A4600F0D1F80028DC
:10113000F1DBF02301991B021940054BC9184B4202
:1011400059412960EDE740230020236016B070BDAF
:1011500000E0FFFFF7B502268B8905000C00334243
:1011600006D0230047332360236101236361F7BD69
:101170006A4601ABFFF7C6FF009907002800FFF79A
:101180004DFA002808D10C22A35E9A05EFD4032261
:1011900093431E43A681E4E70F4BAB628023A289F1
:1011A00020601343A381009B20616361019B002B9E
:1011B0000DD028000E23E15E00F09CF8002806D038
:1011C0000322A38993431A0001231343A381A08917
:1011D0000743A781CBE7C04659040000C9B2821873
:1011E000904201D10020704703788B42FBD0013040
:1011F000F6E7000010B50248FFF70DFA10BDC04633
:101200008000002010B50248FFF706FA10BDC04666
:101210008000002070B50500002910D00C1F236845
:10122000002B00DAE4182800FFF7E4FF1D4A1368DA
:10123000002B05D1636014602800FFF7E3FF70BD49
:10124000A34208D9216860188342F3D118685B680B
:1012500041182160EEE71A005B68002B01D0A34221
:10126000F9D911685018A0420BD1206809185018FC
:1012700011608342E0D118685B68411811605360C7
:10128000DAE7A04202D90C232B60D5E72168601869
:10129000834203D118685B68411821606360546021
:1012A000CAE7C0468400002070B5040008001100A1
:1012B0001A000023054D2B60FEF7D2FF431C03D11B
:1012C0002B68002B00D0236070BDC0468C0000202E
:1012D000002370B5064D0400080011002B60FEF7D6
:1012E000F2FF431C03D12B68002B00D0236070BD9C
:1012F0008C000020002370B5064D040008002B6010
:10130000FEF7ECFF431C03D12B68002B00D02360B9
:1013100070BDC0468C000020044A030010680028FD
:1013200002D0C318136070470148FAE7900000200C
:1013300098000020F8B5C046F8BC08BC9E4670472F
:0C134000F8B5C046F8BC08BC9E467047DB
:10134C00630A000004000020000000000000000000
:10135C000000000000000000000000000000000081
:10136C000000000000000000000000000000000071
:10137C000000000000000000000000000000000061
:10138C000000000000000000000000000000000051
:10139C000000000000000000000000000000000041
:1013AC000000000000000000232D302B2000686C92
:1013BC004C0065666745464700303132333435366C
:1013CC0037383941424344454600303132333435A5
:0C13DC00363738396162636465660000D2
:0413E8007900000088
:0413EC0051000000AC
:1013F000040000200000000074130000941300009B
:101400005413000000000000000000000000000075
:1014100000000000000000000000000000000000CC
:1014200000000000000000000000000000000000BC
:1014300000000000000000000000000000000000AC
:10144000000000000000000000000000000000009C
:041450000000000098
:04000003000001C533
:00000001FF
